:1000000055C000006EC000006CC000006AC0000057
:1000100068C0000066C0000064C0000062C000004C
:1000200060C000005EC000005CC000005AC000005C
:1000300058C0000056C0000054C0000052C000006C
:1000400050C000004EC000004CC000004AC000007C
:1000500048C0000046C0000044C0000042C000008C
:1000600040C000003EC000003CC000003AC000009C
:1000700038C0000036C0000034C0000032C00000AC
:1000800030C000002EC000002CC000002AC00000BC
:1000900028C0000026C0000024C0000022C00000CC
:1000A00020C000001EC000001CC0000011241FBEA4
:1000B000CFEFD5E0DEBFCDBF11E0A0E0B1E0EAE7D1
:1000C000F1E002C005900D92A030B107D9F721E010
:1000D000A0E0B1E001C01D92A030B207E1F73BD033
:1000E0004AC08ECF089586E184B984E08DB981E558
:1000F0008CBD0895F7DF80E887B98FEF8AB918B80B
:10010000F2CF08958EBD0DB407FEFDCF0895CF93B5
:10011000DF93D82F15B886E0F5DFC1E0C5B915B873
:1001200082E0F0DF80E0EEDF80E0ECDF80E0EADF1D
:100130008D2FE8DFC5B9DF91CF91089515B883E021
:10014000E1DF80E0DFDF80E0DDDF80E0DBDF8EB558
:1001500091E095B90895CEDF18B889E6D8DFEEDFD3
:100160008BB980E888B983E294EF0197F1F700C07A
:0A017000000018B8FFCFF894FFCF8D
:00000001FF
